:2000000000400020E5DA000001C9011001C9011001C9011001C9011001C9011001C901109F
:1C00200001C9011001C9011001C9011001C9011001C9011001C901103FC9011089
:20003C002DE9F84FDFF81885DFF8181588F80000002008600821DFF8100501700D21418052
:20005C004FF408718180DFF80405DFF8041501608A7EDFF800050270FF2ACB7E437008BF54
:20007C00FF2B0D7F85704E7FC6708F7F0771C97F417115D1FF2D08BFFF2E11D1FF2F08BF59
:20009C00FF290DD1DFF8D0140A7802704A7842708A788270CA78C2700A7902714979417149
:2000BC00DFF8B81402780A70FF2542784A7082788A70C278CA7002790A714079DFF8A02443
:2000DC0048710021DFF89C04057045708570C570057145711180DFF89004DFF89014466B0B
:2000FC00DFF88C247078087031781170B078DFF884140870B1680879DFF87C14421E0A70E9
:20011C00F078DFF878140870F068DFF87414086008B90FF039FD3069DFF86844206008B90E
:20013C000FF032FD2068DFF8607401688847216851F8042F38469047DFF85004DFF850144A
:20015C003862DFF8500478627069086008B90FF01BFDB069DFF84014086008B90FF014FD4E
:20017C00DFF838B4DFF838649BF8040010F05CF8306008B900F045B99BF80500DFF82474FC
:20019C0010F052F8386008B9306837E19BF80600DFF8144410F048F8206020B9306810F0F7
:2001BC004BF838682AE19BF80700DFF8009410F03BF8C9F8000038B9306810F03DF83868DE
:2001DC0010F03AF8206819E1DFF8A4130A789BF80000DFF8DCA3921C504380B210F024F8C7
:2001FC00CAF8080058B9306810F026F8386810F023F8206810F020F8D9F80000FEE0DC4824
:20021C000078002800F00281BBF80210DFF8A4B3484380B210F008F8CBF8040078B930686F
:20023C0010F00AF8386810F007F8206810F004F8D9F8000010F000F8DAF80800DEE0CC4808
:20025C0000780FF0F1FFDC49086080B930680FF0F3FF38680FF0F0FFD9F800000FF0ECFF83
:20027C00DAF808000FF0E8FFDBF80400C6E0C0480078182148430FF0D7FFD04A1060B0B919
:20029C0030680FF0D9FF38680FF0D6FF20680FF0D3FFD9F800000FF0CFFFDAF808000FF08F
:2002BC00CBFFDBF804000FF0C7FFC348A5E0B048007840010FF0B8FFC1490860D8B930682A
:2002DC000FF0BAFF38680FF0B7FF20680FF0B4FFD9F800000FF0B0FFDAF808000FF0ACFFB8
:2002FC00DBF804000FF0A8FFB34800680FF0A4FFB249086882E09E48007800010FF094FFA2
:20031C00B0490860F0B930680FF096FF38680FF093FF20680FF090FFD9F800000FF08CFFE9
:20033C00DAF808000FF088FFDBF804000FF084FFA14800680FF080FFA04908680FF07CFF46
:20035C009F485AE08A48007800010FF06DFF9E49086018BB30680FF06FFF38680FF06CFF79
:20037C0020680FF069FFD9F800000FF065FFDAF808000FF061FFDBF804000FF05DFF8E48FD
:20039C0000680FF059FF8D4908680FF055FF8C4800680FF051FF8B4908682FE074480078D7
:2003BC00302148430FF040FF884A106070BB30680FF042FF38680FF03FFF20680FF03CFF23
:2003DC00D9F800000FF038FFDAF808000FF034FFDBF804000FF030FF774800680FF02CFF98
:2003FC00764908680FF028FF754800680FF024FF744908680FF020FF734800680FF01CFFBD
:20041C0000200FF0C1FB4FF4804192E03168012008713068057331684D73306885733168AA
:20043C00CD7330680574002031684D743268D072A0223168487103213068C280017207204D
:20045C00316848720020326890722821306841820121C176002031684877326882F85E008A
:20047C00012031680877326882F85D00396808713868057339684D73386885733968CD73AA
:20049C0038680574002039684D743A68D072396848713A6890724FF4207039680022C880E5
:2004BC0008818A7401213A68D17421680D732268557321688D732268D57321680D740021AF
:2004DC00226855742368D9720121226811710021236859712168C880088100208872216836
:2004FC00887405202268D0743948016888472A490A6805461068804727490A6852F8043F5A
:20051C000020984718481D4BC16818780A88314902430A80284630490A6890470C212F4890
:20053C0000F05EF80F4800F05FF800F061F84FF4005198F80000BDE8F44F09F0F1B800BF05
:20055C006E4F0020044F0020604E0020084F0020B63F00502C4E0020E81200503C4E002017
:20057C000C4F0020344E0020101F01006D4F00207B4F00206B4F0020724F00206C4F0020B6
:20059C00F04E0020F44E00207C4B002045020100F84E002055020100FC4E002020160020D2
:2005BC00104F0020144F0020184F00201C4F0020381E0020684E0020004F0020804E002062
:2005DC00844E0020884E00208C4E0020904E0020D40E0020544F0020D80E0020F84D0020EF
:2005FC00DFF800F0E5710110DFF800F01D6E0110DFF800F04D7101102DE9F04FD44C04F14E
:20061C0018012046ADF1440D0CF054FE00264FF6FF7066700121208204F1A4000EF0EAF815
:20063C00022104F1C8000EF0E5F8042104F1EC000EF0E0F84FF0040A04F1440810224046C1
:20065C00314684F802A00BF05BF904F154091022484631460BF054F904F11C073E6004F11E
:20067C000A052E70E671267207206072CDF80080DFF81083022210200346414606F08EFA78
:20069C00102003224146CDF80090034606F086FA1020524641460097134606F07FFA4FF061
:2006BC00080B4FF0030905F12A000C9005F179000D9005F11E000E9005F15A000F902435FE
:2006DC00109517E06078A28FE18FB4F84050B4F8423006280ED1ADF81A20ADF81C10ADF82D
:2006FC001E50BF48ADF820300FF04AFF012006A90AF002FEA069B94A31464FF0FF3300F07E
:20071C0035FA071CF6D002960DF122000DF12E0102AA0EF025F9002840F0C881BDF8221070
:20073C002078102940F0BE819DF82E10884240F0B981029D29884FF6FF728A4200F0A7816C
:20075C002B78A23B00F08A812E3B40F0AB81A978B046002900F04681891E00F01581491EB2
:20077C00012940F2E580891E00F0A880491E7BD0491E5CD0083900F06181891E40F06481C9
:20079C0094F83A30A888052BADF80C0047D001208DF8160092480FF0F3FE94F83A000128AA
:2007BC001ED004281CD003280DD002280BD00298C188ADF80E100189ADF810104189ADF8A6
:2007DC001210818927E0A08FE58FADF80E00B4F84030ADF81050B4F84210ADF812301AE074
:2007FC00A08FE9888842D8BF081CADF80E002989E08F8842D8BF081CADF810006989B4F80C
:20081C0040008842D8BF081CADF81200A989B4F84200884200DC0846ADF8140001E08DF80D
:20083C001660AE49102003AA06F0B8F90CE1AC480FF0A6FE6B78002B40F00681E888608210
:20085C002889A0826889E08265480FF0BDFC002840F0FA80656A002D00F0F6802B68608A40
:20087C00A18AE28A9847EFE0AA88B449102006F095F90C98414606220BF042F86682A6829C
:20089C00E682A879207356480FF07AFE94480FF077FE4FF001084FF6FF702379208253B975
:2008BC00A879082812BF84F801A00520607040460FF0B2FCC8E084F80190C5E06B787BBB42
:2008DC00291D0C980A680260898881800623637068892082E8896082288AA082688AE08222
:2008FC00E878E07294F83A00012818BF02280BD1984910201F2206F051F94FF47A7180B26C
:20091C00414337480DF0A6FD688900909049CDF804A0EA7810202D1D2B4606F03FF996E064
:20093C006878312840F08780E67084F801A08EE06B78002B7FD1A878E3896178032815D077
:20095C00E078257933B9012814BF2671E67008E0B0050020054304D07F4819460DF07AFD3D
:20097C0061780729E1D10620607070E0062907D0E578002D08BF84F8019068D00220F3E7C2
:20099C000720F1E7FDF900006B78002B53D1EB78617893B902291DD007291BD0062902D157
:2009BC002079012816D1032914D06B480FF00CFC80B901200FF030FC0CE00EF0E5FA024612
:2009DC00A079624900900D9843460190102006F0E5F868706D78002D2DD135E00700008061
:2009FC00780600206B7833BB5C485749009002221020034606F0D2F859484A4652490090DF
:200A1C001020034606F0CAF8ED1C0E9829680160A98801238180207863700EF0B5FA024632
:200A3C0001230F9D6079494900901020019506F0B5F8C0B258B184F801B008E0AA8841491A
:200A5C001020052306F0AAF8B8F1010F2AD1256A45B32D6835B36078A84723E068791328EC
:200A7C0020D12889012808D1607B022805D11C480FF086FD0DF022FE14E03649102005220E
:200A9C0006F08CF881B216480DF0E4FC0AE06888C00B07D3334852462B4900901346102033
:200ABC0006F07CF8029808B10FF013FD2579E078790830D355EA00032DD0204600788DB971
:200ADC00E179257A8DF82410109A8DF8255013680DF126052B609288AA8005E00516011020
:200AFC009C0600208DF82490617A8DF82C10A17A8DF82D100EF048FA1149024609AB1020A0
:200B1C0006F04CF838B1256A84F801B01DB12D680DB15846A847B80803D3134930460AF0CA
:200B3C00EBFBF808FFF4E6AD607B401E3FF4CAAD401E7FF4DFAD0DF0C1FDDBE581D200001F
:200B5C0059440110C1170110258A000009450110C19F0000F584011054060020F405002057
:200B7C0004060020CC050020EA050020DFF800F0F99B01102DE9F04F416891F80080ADF11E
:200B9C002C0D0D465FEA58013CBF4FF0000B012103D36D1C06214FF0010B5FEA980208D315
:200BBC0046680BF1010201F113071FFA82FB7618F9B25FEAD80208D342680BF101044F1C7D
:200BDC0002EB01091FFA84FBF9B25FEA181208D342680BF10104CF1D1FFA84FB52180A923C
:200BFC00F9B238F07F0709971ED04068425C4F1CF9B2445C8DF816200A1853788F1CF9B2F8
:200C1C00475C04EB03220C186378ADF817208C1C07EB0322E1B20BF10107ADF819201FFAD9
:200C3C0087FB4018CDF81B00872018F0700F8DF81F0040F073810DF11F000EF013FA002898
:200C5C0000F04D81BF4CA07818EA000F40F064815FEA580016D32878ED1C022229460BF0B0
:200C7C00EDFC002800F03B812178A0880125401800F0FF02491C00F47F4021708018ADF885
:200C9C000A0000E000255FEA980017D33078F61C102231460BF0D2FC002800F020812178E0
:200CBC00A0880DEB45076E1C4018F5B200F0FF02491C00F47F402170801878815FEAD800D7
:200CDC005FD399F8000020F0300918200FF03EFC071C3AD0002118220AF012FEDFF868A208
:200CFC00022049F00103994E9AF8002038704FF00009B01C7860501C3B728000A7F80A907A
:200D1C0080B238820FF022FC7861B8B1011D534601601E787869F8603EB17869FF2120F87D
:200D3C00041F761E80F80290F9D1E06849463A460DF07AFD38B978690CF01CFE38460CF0DF
:200D5C0019FE4F4602E0012700E00027A0882178A278002F00F0C380491C0DEB45066B1C4E
:200D7C004FF6FF77C9B242F0040221704018DDB2C119A27001F47F41FF3000F0FF00091891
:200D9C0071815FEA18106ED30A9801788DF8201047788DF821704688ADF80460B0F805303A
:200DBC00ADF8063001798DF8221018200FF0CEFB071C3DD0002118220AF0A2FD0220634E14
:200DDC003870301D78604FF0010987F8089000267E81062038820FF0B9FB0346E0687B61A5
:200DFC0003B3FB6008AB7A691B780DF1210113700B7811464A1C137001AA13888A1C1380B8
:200E1C000DF1220213780A1D13700DF106031A884B1D31461A803A460DF006FD30B97869F3
:200E3C000CF0A8FD38460CF0A5FD02E04E4600E00026A0882178A278002E50D0491C0DEBD7
:200E5C0045066B1C4FF6FF77C9B242F0080221704018DDB2C119A27001F47F41FF3000F0FA
:200E7C00FF00091871810998002851D018200FF06DFB071C2ED0002118220AF041FD0220E5
:200E9C00324E38709DF816307E6003F0CF00387200267E81BDF8170038820FF057FBD4F821
:200EBC000C90786180B1F860DDF81B10BDF81920786909F03BFC484631463A460DF0B4FCE7
:200EDC0030B978690CF056FD38460CF053FD02E0012600E00026A0882178A2782EB90BF047
:200EFC00CDF89DF81F00E0B91DE0491C4FF6FF77C9B242F08002217040180DEB4506C11972
:200F1C00A27001F47F41FF3000F0FF000918718100208DF8098004E0862002E00BF0AEF882
:200F3C0084208DF8080002A80BF10107009083210022780083B275200CF042FB0BB0BDE885
:200F5C00F08FC04640120020694F0020E61B01002DE9F0470C468046E00BC00318BF84F442
:200F7C00004437D1002C08BF002034D0DFF870904E4670698047194B8246188800250122D3
:200F9C00294602FA01F73C4203D1491C0F29F8DB1BE0CA004546C601E901A6EBC0001B1D86
:200FBC00A1EBC501461A551AB6182A189958F618BDB211B1D21850688847404629460DF051
:200FDC00CBFE10B9002030607060D9F81810504688476C40A0B2BDE8F087C046281000200D
:040FFC00C00E002003
:20100000B41200001810000015AB0110FDB301106DC00110FDAE011099B5011000000000F7
:08102000000000002D0000009B
:20102800B01200003C100000B1C00110A9BF011067C0011069B80110000000000000000035
:041048003000000074
:20104C00B012000060100000BDC00110CDB30110D9BD01106DB3011000000000000000005B
:04106C00310000004F
:20107000000000003016002004000000000000000000000020000000E8C9011030000000E4
:2010900028100000381600200400000000000000000000000C000000D8CA011018000000BF
:2010B0004C1000004016002004000000000000000000000024000000F0CA01101800000043
:2010D00000000000481600200400000000000000000000001000000018CA01102C0000004F
:2010F0000010000058160020040000000000000000000000200000006CCA011024000000B3
:20111000FFFFFFFF601600200400000000000000000000002800000090CA01102400000072
:20113000FFFFFFFF681600200400000000000000000000001400000008CB011018000000F1
:20115000FFFFFFFF7016002004000000000000000000000058000000B4C9011034000000BF
:20117000FFFFFFFF781600200400000000000000000000001000000020CB0110180000008D
:20119000FFFFFFFF801600200400000000000000000000001C000000B4CA011024000000BA
:2011B000FFFFFFFF881600200400000000000000000000003800000044CA011028000000E2
:2011D000FFFFFFFF901600200400000000000000000000005400000078C901103C00000057
:0811F00001000000FC1E0100DB
:0411F80001000000F2
:0411FC0000000E00E1
:0412000000000F00DB
:0412040032000000B4
:0412080001000000E1
:04120C006C1500203D
:0412100000020000D8
:0412140000000000D6
:0412180001C90110F7
:04121C0000000000CE
:0412200000000000CA
:0412240008000000BE
:0412280000002200A0
:04122C00B4130020D7
:0412300000000000BA
:0412340000000000B6
:0412380008000000AA
:04123C002C1500204D
:0412400000000000AA
:0412440000000000A6
:04124800080000009A
:04124C00000000009E
:04125000000000009A
:041254000000000096
:041258000000000092
:04125C00010000008D
:041260007C140020DA
:041264000600000080
:041268000100000081
:04126C0090120020BC
:04127000000000007A
:041274000000000076
:041278000002000070
:04127C00000000006E
:02128000290043
:02128200010069
:02128400250043
:02128600300036
:02128800310033
:02128A002D0035
:02128C0001005F
:01128E00015E
:08129000030000009C1E010098
:0812980000000000000000004E
:0412A0000000010049
:0412A4000000030043
:0412A80013C401105A
:0412AC00D7FF000068
:0412B000B812000070
:0412B400B81200006C
:0412B8000000000032
:0412BC00E015002019
:0412C00051010100D7
:0412C4002000000006
:0412C800281E0100DB
:0412CC00B01C010051
:0412D00029C101101F
:0412D4003FF40000E3
:0412D80007F7000014
:0412DC00A1C7011095
:0412E000A3C701108F
:0412E4000000000006
:0412E800FF1C0100E6
:0412EC00BC1A010027
:0412F000D41A01000B
:0412F400A41A010037
:0212F8000200F2
:0212FA000900E9
:0212FC000100EF
:0212FE000000EE
:0113000001EB
:04130400CD00010017
:0413080069E6000092
:04130C0039F60000AE
:0413100049E90000A7
:04131400E1E900000B
:04131800C1D8000038
:04131C0069BB0000A9
:041320002B0301009A
:0413240011CD0000E7
:0413280015C70110D4
:04132C0025C70110C0
:201330002DE9F84F0E460546AD4900921020167033462A4605F038FC071C40F06F82DFF836
:20135000A4B2DFF8A482022E40F01F816978287842F6222200EB012082422BDB824200F0A3
:20137000C080093A824217DB824200F0C98041F60201401A14283DD941F20411401A00F0AF
:20139000CB80B0F5807000F0C480401E00F0BE80113800F0B88054E0D21C801A00F0AD8053
:2013B000401E00F0A780401E00F0A180C01E00F09B8046E04FF6F171814211DB81424AD0F7
:2013D0000F32801A08282CD918380C2830D9123848D0401E43D04DF29451401A3DD030E0F2
:2013F000491C401A35D0401E31D0401E2DD0401E29D026E0DFE810F0C400C200BF00BC003A
:20141000B900B600B300B000AE00AB002500A800A500A2009F009C0099009600840025006A
:201430009300DFE800F05B5855524F4C494643C0DFE800F0393633302D2A270724211E0753
:201450001BC000279EE05F468AE05F465FE05F4660E05F4690E05F4693E05F4692E0474653
:2014700054378FE0474652378CE047464E3789E047464C3786E04746123783E047461037E2
:2014900080E0474646377DE0474642377AE04746403777E047463E3774E047463C3771E013
:2014B00047463A376EE0474630376BE04746263768E04746243765E04746223762E047467D
:2014D0002E375FE047462C375CE047460E3759E04746363756E04746383753E047464837B6
:2014F00050E0474634374DE047461C374AE047461A3747E04746183744E04746163741E07D
:2015100047464A373EE047460C373BE04746083738E04746BF1D35E047461E3732E04746C1
:2015300050372FE0474644372CE04746323729E04746603726E047462A3723E047462837EB
:2015500020E047465E371DE0474620371AE047465C3717E0984F15E04746143712E0474634
:201570000A370FE047465A370CE04746583709E04746563706E047463F1D03E0474601E0E2
:201590004746BF1C002F40F04981DFF85CA2DFF85C92022E4FF0000712D0102E50D108F25F
:2015B0000E4029460EF085F838B94046294600F21E400EF07EF8002842D0687B297B01E097
:2015D00068782978984A01EB00214FF6CB60091A944809290AD9A1F2251080B10DE0C0461B
:2015F000318200003E160100DC150100DFE801F0201D1A181614110F0C09DFB91DE05F4621
:2016100018E04F46703715E05746503712E0574610E0074630370DE007460BE0174605E0D3
:20163000174607E00746203704E00746103701E057466037009902200870002F40F0EE8025
:20165000022E4FF000071DD0102E40F0DD8008F20E4029460EF02DF888B94446294604F242
:201670001E400EF026F850B904F16E01284610220DF0A4FF04F16E0800B94746C3E0697BFB
:20169000287B01E069782878DFF8A0B100EB012054281DDCDFF89CC1DFF89CE14C283FDA77
:2016B000401E00F0AC806C49001F00F0A680C01E00F0A080DFF88CB1DFF88C81634C644B72
:2016D000644A401F1C2813D92238082821D92FE04FF6F171401A2ED05549401E00F08D8032
:2016F000401E00F08580401E55D0401E4FD01FE0DFE800F07E777573706D6B691E1E1E1ECB
:2017100066641E5E5B59575553514F4D4B491E4745C0DFE800F032300D2E2C29272523C0FD
:201730004C38DFE800F01905171513110F0D0BC0002F65D167E047467E3761E04F465FE006
:20175000674648E067465BE0774641E077462DE077462EE077464EE0774632E077464FE0A3
:201770004F4648E04F462CE04F46303748E04F462EE04F462FE0314F2DE0574621E02F4FE7
:201790003EE02F4F27E02E4F3AE0574623E05F4621E07746E9E75F4632E047461BE0474660
:2017B0002EE0274617E027462AE06746703727E06746603724E0C0463C1E010067461AE085
:2017D000674640371CE06746CFE7574600E06746203715E01F46103712E01F4610E01746B0
:2017F000F9E717460CE0C046AA1601000A1901000F46F0E75F46503702E00F4600E0174FF0
:201810000098102101704FB930460EF0A5FE041C04D02946324608F08FFF27463846BDE86E
:20183000F88FC0463A1701001A1701008A1601006A160100EA1701006A190100EA180100DC
:20185000CA180100AA1801008A1801006A180100CA170100AA1701008A1701007A170100D4
:201870002DE9F04FD94C04F13000ADF1340D0DF089F91720606340F25A272786A7F148051C
:2018900065864FF0000B84F83DB00C20A06303F097FD211D20460BF013FDD34A584602EB8D
:2018B000C0014E6826B1401CC0B20428F7DB03E015200870CD4E4E6020780DF06BFBCC4995
:2018D0000246102005F070F904F114000EF017FDC849A0601F220623102005F065F90420E5
:2018F0008DF82500D8468DF824804FF0A00AADF810805026ADF814A04FF47A73ADF816808F
:201910000121ADF8126009AAADF8183005F1F30001F012FA05F1F400022104AA01F00CFA46
:20193000CB4D4FF44270092105F12406324601F003FA05F1140907F1AD0008214A4601F078
:20195000FBF94FF4447001210DF1250201F0F4F907F1B70002210DF1120201F0EDF907F1B4
:20197000B800022105AA01F0E7F907F1B90002210DF1160201F0E0F94FF44570022106AA7D
:2019900001F0DAF908200EF0E7FD103E09F12401486028B108220A70776847603168016057
:2019B000944910200622534605F0FEF8914910200722534605F0F8F88E49102008225346E3
:2019D00005F0F2F88B4910200922534605F0ECF8CE4905F11000086001238DF826301F468E
:2019F0008DF82830CA4E8DF8293040F203428DF82A7003208DF8270021218DF82B100DF19F
:201A1000270031460090102005F0CEF80AA840F2064200903B463146102005F0C5F80DF109
:201A300026004FF4806200903B463146102005F0BBF80DF129000090314640F20D423B46BB
:201A5000102005F0B1F80DF12B00314640F207423B460090102005F0A7F80DF12A00314619
:201A70004FF483623B460090102005F09DF8A94905F11C02102005F097F8A74D85F800B088
:201A900005F120000EF03BFCE86005F12C000EF036FC286120780DF07DFAA049024610205B
:201AB00005F082F820780DF075FA9D490246102005F07AF89B485A4615239B49009010207F
:201AD00005F072F8994910204FF0FF3205F06CF8974910204FF0FF3205F066F810269548D6
:201AF000009613239449954A0190304605F05CF80DF0E6FC924984F80CB0304605F054F855
:201B1000CDF80080552039465A465B460BF05EFD04F1200A606859464FF040424FF0FF332D
:201B3000FFF72AF80028F5D0584602900BA902AA0DF11A000CF01AFF002863D1BDF81A00A8
:201B500010285BD120789DF82C10884256D10298017891393CD0491E34D01E394ED10646A1
:201B700030791E2814D07F2826D1708837898DF81C005946042207AB8DF81E7000128DF86A
:201B90001D0038128DF81F00202009F087FC13E0708800F0FF0100F47F404018ADF80D00D6
:201BB00070780DF10D0703AA022389218DF80C00552000970BF00AFD317906F108000EF059
:201BD000F9FF1BE041780E2916D017E00802002041780E3910D0891E02D0EF390ED10BE0C0
:201BF00008200BF035FC09E04011002085EC000051880110BD84011000F006FC029808B135
:201C10000EF06DFCA0680EF0D1FF002882D1A0680EF048F8061CF5D03078401E6FD0401E2C
:201C300030D00E386ED170688446E04698F8030081114FEAA01E03291DD082115AF822709B
:201C5000CFB12246891891F81090594604E0C046DC120020491CC9B289450CDD0AEB8E030E
:201C70001F68CA00D75B8742F4D11868801841686046884702E040460CF09CFB40460EF08E
:201C900071FC3FE0707895F8397001283AD1AB683846123803D0801F14D0E63832D1A3B1B0
:201CB00087208DF820008E278DF821B05946032208AB8DF822704FF4004009F0EFFB0DF0CC
:201CD000FFFBAB685BB995F839700097286CA96C6A8FB5F8443007F065FCA86C0CE058791A
:201CF00000905969DA88D8681B8A07F05BFCA86880F804B0A86840690BF0DAFC02E070785D
:201D100001F066FC30460BF03BFE7BE7D40500206D3F00001DFA000040120020ED03010035
:201D3000318101100C1D01008DB2000019F5000029F80000401E0100BFEE0000940900206F
:201D5000C5AB00102DE9FC41B04A01884768157B891EBE1C002D89B240F07F814068008895
:201D70004FF602459046854220DB2C46844200F0F98041F20905401B00F05B81B0F57F7092
:201D900000F04681A0F61240002800F02981801F00F01981401E00F00681401E00F0F9800D
:201DB0004DF6E232801A00F0E8804FE1ED1C401B09280AD90C384BD0C01E37D0801F27D048
:201DD000C01E1BD0C01E0CD040E1DFE810F0B7003F01A9009A009000820078006A00590001
:201DF0004F00A449002210200092134604F0DCFEC0B2002840F02B811B3520E19E491020AE
:201E1000002204F0D1FEC0B2002837D012201EE1012940F00C8199493278102004F0C4FEA2
:201E3000C0B2002840F01381153508E1032940F0FE80707832789249B37802EB0022102050
:201E500004F0B2FEC0B2002840F001810F35F6E0012940F0EC808B493278102004F0A4FE5E
:201E7000C0B2002840F0F3800C35E8E08649102004F09AFEC0B2002840F0E9800020E6E068
:201E9000022940F0D48070783278804902EB0022102004F089FEC0B2002840F0D88008350F
:201EB000CDE0062940F0C38079491020324604F07BFEC0B2002840F0CA80ED1DBFE0754971
:201ED000102004F071FEC0B2002840F0C080AD1DB5E0012940F0AB806F493278102004F0EB
:201EF00063FEC0B2002840F0B2806D1DA7E06B49102004F059FEC0B2002840F0A8802D1DF9
:201F10009DE0022940F09380654932787378102004F04AFEC0B2002840F09980ED1C8EE0BD
:201F3000012940F084805F493278102004F03CFEC0B2002840F08B80AD1C80E0202976D1F5
:201F500030460DF0EFFD06F110000DF0EBFD564906F110031020324604F026FEC0B2002823
:201F70006DD074E0012962D150493278102004F01BFEC0B2002862D069E0012957D14C49E7
:201F90003278102004F010FEC0B200285FD1651E55E04849102004F007FEC0B2002856D158
:201FB00042F21F054BE0032941D1B0780090424932787378102004F0F7FDC0B2002846D1AF
:201FD00042F21E053BE0012931D13C493278102004F0EAFDC0B2002839D142F21D052EE011
:201FF000202924D130460DF09DFD06F110000DF099FD334906F110031020324604F0D4FDF9
:20201000C0B220BB42F2170519E0C0460802002002290CD1707832782A4902EB002210209E
:2020300004F0C2FDC0B290B941F2054507E084200DE02549102004F0B7FDC0B238B9012063
:2020500088F80C00A8F80E50162000E08D2016288DF8040004D1BDE8FC8185208DF8040037
:2020700000975520042101AA02230BF0AFFABDE8FC81C04691B8001025B80010D5B40010A4
:20209000C9B6001069B60010F9B50010D9B50010A1B5001069B5001049B5001029B5001086
:2020B00009B50010B5B400100DC90000C1B3001081B300101DB30010E1B20010FDB20010E9
:2020D00029D6000025AB001005AB00102DE9FF47C34C0F460646F80B80F05881B80880F0C9
:2020F0004981607ADFF804A3B90F80F0CB80E079390914D2B80BC0F06A8104F13C000EF01D
:2021100035FA061C08D0706830B17568F068B6F9241000222023A84727F4005757E101288E
:2021300000F0AB80E06870300EF006FA68460CF0AFFA20B1009904F198000EF08BF800259E
:202150004FF00108E570A74884F805800EF0F2F8A5492A4604F160000EF0FAF95046006858
:20217000006B80476061A2782169A369012AA0EB010018444FEA1030A06105D163781BB99A
:20219000E169B0EBC12F3AD9DFF8649284F80280A9F1150000686570000A30D340F6090044
:2021B000A08494F8310000F0F00040F0010084F8310094F8300000F0F00084F83000A56221
:2021D0000EF0C0F94B4603F6FF7211686FF0020C21F00201116004F12401C3F8FBCF854A64
:2021F000C3F8EB1F11688908FCD3C3F8FBCFD3F8FF1F41F00201C3F8FF1F0EF0D3FC7E4A21
:2022100010687E4920F00200256140F400701060032341F8043C41F230038B6040460860E5
:2022300050238B6008604FF4CA638B600860237841F80C0C15601BB9E06838300EF09AF98F
:2022500002200CF0A9FA112007F08CFB307C10B90E2007F087FB207A18B1257205200CF0C7
:202270009BFA674965710878A57140B10D7004F1BC0004210EF086F901E00020E07127F073
:202290000807A4E020B104200CF086FA00206072B168088840F602084FF0000980450AD068
:2022B000B0F5C15F07D00A8B4FF61F60104040F43470088306E00A8A4FF61F60104040F4A4
:2022D000347008822069F0B1DAF85400016804208847C0B1DAF800002569006B8047F168B8
:2022F000401B738AF060020BF26098188842F06002D240184008F06040F6C41181422CBF80
:20231000B0F5FA7FF16094F8310010F00F0F0CD1718C08F10700884207D1B56930466FF4F0
:2023300080714A464FF00073A847364904F160004A460EF00DF9607860B10220ADF804004F
:2023500001A80CF071FFBDF80C0084F801904011A4F860010120E07084F804900AF0DCFDE8
:202370007569494630464FF080630A46A84727F000572CE006F05CF804F144000EF0F6F820
:2023900027F0020708B147F0020720E00EF0DAF8014604F140000EF0E9F8061C12D0356A46
:2023B000A8080FD225EA0500306208460EF0FAFB706850B12A46F068B6F924107568002311
:2023D000A84702E008460EF0EDFB27F4804727B104F1BC0039460EF0D5F80090BDE8FF8778
:2023F000C0160020E18D000061F500008C0100101500044010100440000004600C410440C4
:20241000651E0020556000000246B0B58320ADF1380D8DF83000C1489788047B4FF602433B
:2024300039468B421BDB5B1E8B4248DD41F20903C91A00F04881B1F57F7100F01D81A1F649
:20245000FE31002900F00381143900F0DD80891F012940F2C480891E00F09D805BE1DB1CD7
:20247000C91A77D0891E072929D90A3927D0C91E39D0891F23D0891F40F04D812021FC277A
:202490008DF80410012C8DF805704FF0020140F03781C4891B33A34240F0328100239268C2
:2024B00003739778002F40F02E81D11C8DF830300DF106000C2208F03FF90E2123E13912C7
:2024D0008DF82C70012C8DF82D1007D1C1898F4204D1002197680173B87800E08C208DF83F
:2024F00030000BA88EE01421FC278DF80410012C8DF8057040F00F81C1890F338B4240F01A
:202510000A81002192680173901C0778D7B98DF8301042788DF8062082788DF808108DF890
:20253000072002798DF80A108DF8092082798DF80C108DF80B20007A8DF80E100B238DF880
:202550000D0082E090788DF83000D07803238DF806007AE00521FC278DF80410012C8DF858
:2025700005704FF0020140F0CB80C489A34240F0C780002392680373921C1778002F40F041
:20259000C28011468DF830300DF10600112208F0D3F81321B7E01F2120278DF82810012C77
:2025B0008DF829704FF0020114D1C38942F21F049C420FD100230373906807786FB9471CCA
:2025D0000BD08DF8303040788DF82B3004218DF82A0002E08C208DF830000AA894E039120B
:2025F0008DF82070012C8DF8211007D1C1898F4204D1002197680173387800E08C208DF8B6
:20261000300008A8022380E017212027012C8DF804104FF002038DF8057013D1C18942F260
:2026300017048C420ED1002192680173177867B98DF83010511C0DF10600102208F07CF8B0
:20265000122302E08C208DF8300001A85DE09168087800285FD1491C01A80A6849680260A8
:2026700001AF416038782E4901AA00F0FD003870102004F099FA4EE0142105258DF81910A0
:20269000012C8DF818504FF0020117D1C38941F205449C4212D1002303739068077887B90D
:2026B000471C0ED08DF8303041788DF81B308DF81A10C07829468DF81C0002E08C208DF851
:2026D000300006A820E0092110278DF80410012C8DF805704FF0020112D1C489A3420FD1B4
:2026F00000230373906807786FB98DF83030401C02680DF106010A6080888880082102E05D
:202710008C208DF8300001A80B46009004210CAA55200AF05BFF0EB0B0BDC04608020020BF
:2027300095B40010BB482DE9F84F0025BA4CB849056094F8E200002800F06581012800F0BA
:202750002F81B64E02283CD0032840F05C8151F8250CD4F8B8100029A0F5C060C4F8D400CB
:20277000B8BF49420028B8BF4042814226DA4FF08057D7F8A4014568B4F8BC0030214FF430
:202790007F42082300903046A847D7F8A4014568B4F8C00004214FF4F8021223009030461E
:2027B000A847D7F8A401B4F8D070456820214FF440620A2330460097A847012584F8D850F4
:2027D0001CE151F8258C0DF0C7FD2F4600B901273946934F38680028FCD0B146012609F1CE
:2027F0000409D9F82CA03E6009B10DF0BBFDCAF30720C4F8BC000DF0AFFDAA4600B9B2466C
:202810003B68002BFCD0D9F800B0BAF1000F3E6001D00DF0A7FDCBF38440C4F8C0000DF0C8
:202830009BFDAA4600B9B2463B68002BFCD0D9F81C90BAF1000F3E6001D00DF093FDC9F3C6
:202850008120C4F8D000B8F5C061C4F8B81000F09C8094F8D80068B9C4F8D410D4F8C0002C
:20287000C4F8C800D4F8BC70C4F8C470D4F8D030C4F8CC30D4F8D410D4F8BC30002954BFB4
:2028900002206FF0010004F1C802176801EB41014018411000EB917107EBA1001060D4F8D5
:2028B000C810C4F8C43000291CDD1E293CDDD4F8CC0030B93429B4BF15391E21C4F8C8108C
:2028D00025E02A29BABFD4F8C8000B381E20C4F8C800D4F8C4003F28B4BF401C3F20C4F89D
:2028F000C4001FE0D4F8CC00032812D011F10B0FC6BFD4F8C8000B30301CC4F8C800D4F854
:20291000C4000028C4BF401E051CC4F8C450032508E011F1150FC6BFD4F8C8001530301C09
:20293000C4F8C800C4F8CC504FF08057D7F8A401B4F8C43030214FF47F42456837480093ED
:202950000823A847D7F8A40104214FF400321123456832480096A847B4F8C860D7F8A40117
:2029700004214FF4F802122345682C480096A847D7F8A40120214FF440620A23B4F8CC606B
:20299000456826480096A84701E084F8D85040F2FF50404502D8801C40452FD2082030E0C8
:2029B00051F8251C1F4F4BF2F5204843060A3868C0F3814001280CD11B480068006880470E
:2029D0000BF036FB0DF0D4FC3111C010484306EBE03694F8E50030B91448006820F07F405D
:2029F0008019460801E084F8E5501148310C0660012741600F4D8760287808B90B2000E0DA
:202A1000052084F8E40003F03FFFBDE8F88FC0462D400C402C500C40AC0D002000A00C4078
:202A300000800C40B43F0050EC010010102009403C600C40111E01002DE9F04FB64D6868C1
:202A500085B0019020B905B0BDE8F04F0EF0A6B80178DFF8C882B24EDFF8C892DFF8C8A2C6
:202A700001291CBF0229042946F2A81741F64C5B05D0402918BF802900F09A8043E10DF02B
:202A9000A1FC0028FAD00198007804F059FF0090446814B900200DF07DF89AF801000028E4
:202AB00060D001F08BFD0DF0CDFA02900168009801914F6809F01EFB022827D000990A786F
:202AD000012ADBD1994B19680A7A19F80230337018B90EF05FF85844A0602069C17E01F0C5
:202AF000EF01C1762069C17E41F08001C1762069C17E01F0F00141F00201C1768C48B968E4
:202B100041182069C16101210098A0E001980178802913D10822874832700178012903D0B7
:202B30009AF80100012803DD38690121C17213E0D8F828103A690878D0720DE07D490720B9
:202B500030700A783869012A02D10123C37203E0D8F828104A78C2720298817901988AF8BB
:202B70000210CBE00098002888D00199009A0078914205D101281CBF00200DF00BF815E002
:202B9000012840F0C080694801680A7A19F8020030700DF0FFFF3918A0680DF0F7FF18B923
:202BB0000DF0F8FF5844A0600120A8700098A5E09AF8010000287DD001F000FD0DF042FAF0
:202BD00004462068029047689AF802000DF03AFA03900DF0FDFB10F0070F3DD0A87804F04E
:202BF000AFFE0190416801980091029909F082FA022831D001990A78012A2AD14B4B196820
:202C10000A7A19F80230337028B90DF0C3FF83440098C0F808B000990869C17E01F0EF01A1
:202C3000C17600980069C17E41F08001C17600980069C17E01F0F00141F00201C176009AFD
:202C5000B9683B4841181069C16101210198A97054E000200CF09EFF0398A04228D00298FC
:202C70000178802913D10822324832700178012903D09AF80100012803DD38690121C172F0
:202C900013E0D8F828103A690878D0720DE02949072030700A783869012A02D10123C37224
:202CB00003E0D8F828104A78C272A0798AF80200029823E00DF08CFB10F0070F29D0A87836
:202CD00004F03EFE04462078D4F80480012820D116490A68107A19F8001031700DF05AFFF5
:202CF0003918D8F808000DF051FF20B90DF052FF5844C8F808000120A870204605B0BDE8CA
:202D1000F04F06F0E9BE05B0BDE8F04F00200CF041BF05B0BDE8F08F381E0020101F010093
:202D30006F4F0020289A0110684E0020104F0020F0D8FFFF734F00202DE9FC41144688465A
:202D5000A0F201330246B54EB749B64800271A2B1CD8DFE813F054014F0148011B001E0102
:202D70001701F900E300DA00D100C700BC00B2001B001B00A700980089007F0070001B0067
:202D90001B001B001B0053001B002600282A06DAB8F1020F03D1A04923881046ECE002279F
:202DB00037E1B8F1010F40F02D81F078012800F01881324620781179107181B9002800F0CD
:202DD00028815078012800F0F880042800F0F580062800F0F280052800F0EF8019E12078A2
:202DF000002840F016815078032800F0F180072800F0EE80052840F00C81E9E0B8F1010F87
:202E100040F000812078012840F0FC8006F1EC000DF0E0F968B93446384604F13A0108F08A
:202E300071FA071C40F0F58004F1C8000DF0AEFBEFE01627EDE0B8F1020F40F0E38021881D
:202E50000A29C0F2DF80B1F5486F00F3DB80801C064616E0B8F1020F40F0D4802188B1F508
:202E7000FA7F80F2CF80F3E7B8F1020F40F0CA8021880629C0F2C680B1F5486F00F3C28098
:202E90003E363180C5E0B8F1020F40F0BB8021880629C0F2B780B1F5486F00F3B38006F1F8
:202EB0003C00D5E7B8F1010F40F0AC802078062880F2A8800C310E4612E0B8F1010F40F029
:202ED000A1802078042880F29D800A3608E0B8F1010F40F097802078082880F293800936BA
:202EF000307096E0B8F1060F40F08C80A68808468680216801608CE0B8F1010F40F08280EF
:202F1000207804287EDA083606E0B8F1010F79D12078042876DCF61D3146CCE7B8F1200F33
:202F300070DA06F1830539461F22284608F0EEFC21464246284607F0FFFB44463078B47103
:202F50000CF028F83B4614E0B8F1200F5ADA06F1640539461F22284608F0D8FC214642467B
:202F7000284607F0E9FB4446307874710CF012F8012300942D4901950246102003F014FE9A
:202F9000C7B246E0B8F1020F3CD1218806F10E005EE7B8F1010F35D13079012821D03246CE
:202FB0002078D178D07061B9002832D05078012803D0042818BF05282BD101200DF032F963
:202FD00027E0207828BB5078022818BF052820D110780BF0DFFF12490246102003F0E4FD70
:202FF00017E0122715E0B8F1040F0BD120681C3630600EE0B8F1100F04D1143005E0B8F13D
:20301000100F01D0182704E0001D2146102207F093FB3846BDE8FC81BD840110B00500208B
:2030300099450110F0050020DE050020094501102DE9F04F0C46E00789B00BD50DF0DAF8A4
:2030500028B100218160A448006800B1804784F001003EE1A00710D500200690002104902E
:2030700000230290009005910393019101223C200DF088FD84F002002BE11D256007974E2C
:20309000974F40F18A8000200790834695498878FF2804BF00200CF07DFD386890F8A00059
:2030B0000CF0D0FF80463868C07A98F82691022818BF032808F5907A06D106F10D000DF043
:2030D0005DFD08B906F1070B514648460DF052FD88B33868807A002818BF012804D1314602
:2030F00050460DF043FD04E05246494630460DF039FDFF2834D005FB00F906EB09050622EE
:203110005146E81D0CF090FE16F8090040F00209E81D079006223868817E01F0010188F851
:20313000261105F1010A386800F1140108F590700CF07AFE14E0514648460DF00FFD78B1E5
:203150005246494630460DF00DFDFF2808D006F10D01454348190DF011FD08B149F00209C6
:2031700008F12C004B4601780691418909090591B8F82220079904920122C0880291400899
:203190000390CDF804B0CDF800A0002098F806100DF0F8FC84F004009BE0200610D50020D9
:2031B00006900021049000230290009005910393019101223B200DF0E5FC84F0800088E0F9
:2031D000E0043BD5F11D06F10D000DF0C3FC38684179012923D1017A012918BF04291ED10D
:2031F000C17A022918BF032919D1817E00F1140230460DF0B7FCFF2811D04543354405F141
:203210000D000DF0BBFC50B9E91D05F10D000DF0A1FC38680622E91D14300CF005FE3249A5
:2032300032484A6800784FF480510AF0FDFC10B18E2008F0F3F984F480504AE0A00505D58F
:203250000DF08AF82A4901200860FEE7610504D508F00DFC84F480603BE0600405D581206C
:2032700008F0DCF984F4804033E0A00430D5214D286810B100200CF08DFC4FF0FF30286023
:203290000DF064FC1C4D296851F8202F684690471A48016A426A2D68009101921849029184
:2032B00000F128014A6809781368C06903938DF81010ADF812006B462E68124A12491348C2
:2032D000B0471349086003F0BBFE84F4005000E0002009B0BDE8F08F204F0020AC45002032
:2032F000104F0020684E0020784E00206E4F0020FC002043044F0020F04E00201C14002026
:20331000F50101002C4D00206845002088490020EC4E00202DE9FE4F0F46994C016861642A
:2033300041688068A0619748616180479648616C01606169DFF870B24160A169DFF864824C
:2033500081609249002FA246C16063D03D68E8788DF8080028798DF8090002A809F08DFB4A
:20337000A86808B18A490160E86808B189490160894C2878207068786070A878BE68A070F9
:2033900031787368E170B26863602E69A2607968E6610868E06068692062A8696062287F2D
:2033B00084F828002A6AE262786886681EB900200CF0F0FB00E066617868C06818B9002035
:2033D0000CF0E8FB00E0A0617868406818B900200CF0E0FB00E020612869E061F868816851
:2033F0000E6806B96E4E6D494FF001094E60C66881F801902EB900200CF0CCFBF868454632
:2034100001E045462E6000685C46FE68A0617068E06106E000200CF0BDFB4FF001095C4673
:203430004546286861494668621C04F114035020B04710B1286880688047DAF8140080476B
:203450005C4F0026834669467E7059483E700422206130460BF0EEFA0098B0F5801F0CD01E
:2034700020B90BF089FE04F0B1FC08E00AF098FB0CF01AFE0420788001E00BF07DFE4E4FA7
:20349000B0462868C7F808808069A660804778604A48468080F8009014200CF0CBFEFF2148
:2034B0001422A0620DF078F8E01CFF2103220DF073F814200CF0BEFE41490860086814222A
:2034D00031460DF069F83046FCF7B0FD48460AF063FE3C480188FF2906D1022101807822BE
:2034F000001D31460DF058F8032008F051F904200DF028FB05200DF021FB06200DF01AFBBC
:20351000072009F0A1FB304E0820307006F124000DF00CFB09F058FD06F15C07052010217C
:203530003A460CF063FA38B14046C0F10F01401C07F8011B1028F8DB3078102106F0F6F833
:203550002F68224909200DF10A0201AB7D68087010204146A847A06AE2690A270A309DF822
:203570000A1000F8011BDAF818107F1EF7D1921E5846E261884702F0A7FBBDE8FE8FC04682
:20359000C00E002041490010F8440020CC0B0100D9F00000A9FD00001C140020001600206A
:2035B000FFE30000A0160020DC140020A9F5000009FE0000241300202C1E0020AC050020FC
:2035D0005C1E002028100020C40A00206F1E0020F0B5AC4C61790746401EADF1340D7DD000
:2035F000801E64D0401E4ED0401E3AD0401E7BD1012979D040F21530694604F035FA04F1AA
:20361000080140F20E3004F02FFA02AD40F20E30294604F029FA0DF10A0140F2163004F0EA
:2036300023FA03A940F2173004F01EFA0DF10E014FF4467004F018FA04A94FF4477004F085
:2036500013FA69460DF111000A68898802602B4681800F2201200546002107F01FFF65718F
:2036700042E0002938D020898DF820000DF1220100128DF8210040F21D3004F0F5F90BF064
:203690001FFF08AB23E079B320898DF81C000DF11E0100128DF81D0040F21D3004F0E4F9AF
:2036B0000BF00EFF00250220032207ABD4E799B120898DF818000DF11A0100128DF81900C0
:2036D00040F21D3004F0D0F90BF0FAFE06AB02200021032207F0E2FE0025C0E704F10801F1
:2036F00040F20E3004F0C0F9A179062F00F08D80E678072F7FD0042F10D0052F0ED0032F17
:203710000CD0022F40F0BB80002E4FF0010533D100220DF12D018DF82D2029E006292FD053
:2037300007292DD02079032F1BD0012E40F0A780022909D0002840F0A280002210200BA98C
:203750008DF82C20154614E0002510200DF12B012A468DF82B50134607F0A0FEE570257171
:203770008DE058B900220DF12A0101258DF82A200820134607F092FEE57080E00025EEE7C4
:20379000607880081FD3A078012E0AD0012103288DF8281014BF40F2053040F21B300AAA31
:2037B00020E0032820D0002001258DF828000AAA2571294640F21B30FFF7BEFA29460AAAE4
:2037D0008DF828100CE000208DF8290001210DF1290240F21B30FFF7AFFA01210DF12902B0
:2037F00040F20530FFF7A8FA04F13802107A002845D010783DE0012E4FF00105BCD00022FD
:203810000DF127018DF82720B2E7072923D0002560788DF8255040080BD240F20530012145
:203830000DF12502FFF788FA8DF826500DF1260115E040F2053001210DF12502FFF77CFAAC
:20385000012540F21B300DF125028DF825502946FFF772FA08E0002509A98DF824502A469D
:203870001020134607F01AFEE57004F14002107828B15268014640F20730FFF75DFAA771E4
:203890000DB0F0BDDC1200202DE9F04F8246DAF800600C465FEA0208ADF11C0D14BF0021F1
:2038B0004FF0FF3106F1480083460CF037FC002818BF0B2040F00D8100258848F460B8F178
:2038D000010F057007D0657002200BF08BF906200BF088F901E0012060702078012840F29F
:2038F000AB80801E012868D9801E012833D9801E012800F2DF800CF025FE06904FF08050D6
:2039100000F5EE77D0F8DC01A378466A009321782846062908BF0120019001200290A068D0
:20393000228AE1686368B047814606980DF03AF9B9F1000F40F0C080B8F1000F02D00CF07C
:2039500043FA02E050460BF0C9FA002800F0A4803868806A2AE00CF0F5FD06904FF0805081
:2039700000F5EE77D0F8DC01012306680093A168A27860682478AC46042C08BF9C46634618
:20399000B047814606980DF00DF9B9F1000F40F09380B8F1000F02D00CF016FA02E05046AE
:2039B0000BF09CFA002877D03868406880474A49C1F8B0510D6081467EE00CF0C3FD0690B7
:2039D0004FF0805000F5EE76D0F8DC01E38A87690093E0680190208B0290A0780390207D7C
:2039F00004900121059122782846022A08BF081CE1786268A368B847814606980DF0D2F8F3
:203A1000B9F1000F58D1B8F1000F02D00CF0DCF902E050460BF062FA00283DD03068006A53
:203A300080475FEA000947D13068C569A168E28A2369E078A847BEE70CF084FD06904FF040
:203A5000805000F5EE76D0F8DC01E38AC7680093E0680190208B0290A0780390207D29468C
:203A7000049001200590257805B9014608466268A368E178B847814606980DF093F8B9F138
:203A9000000F19D1B8F1000F02D00CF09DF902E050460BF023FA08B914201AE03068406941
:203AB00080475FEA000907D1306802692169E078904780E74FF0FF39B8F1010F05D00220BB
:203AD0000AF06AFE06200AF067FE58460CF052FD484607B0BDE8F08F504502406E1E00201A
:203AF0002DE9FE4F05467F48002400680094C0090ED37D48007858B97D497C4851F8112C19
:203B1000104040F0817041F8110C20200AF06AF8012D40F0E280DFF80892D9F8DC0001282B
:203B300040F0D8800220C9F8DC000BF025FE01200AF058F85FEA000805D00120C9F8DC00C1
:203B50000BF02AFECBE00CF019FDA34602906948694DC0F800B0A86A016801208847012897
:203B700004D1584608F032FB012000906348644FC0F800B0386811200CF00CFC00B101247B
:203B900010200CF007FC08B144F002040F200CF001FC08B144F004040B200CF0FBFB20B1E8
:203BB0002868584E016B308888470A200CF0F2FB20B12868544E016B308888475348012601
:203BD00006602868816944F020008847504806600CF0DAFB00F001010191400814D2286ABF
:203BF00081684C4888478246BAF1040FF7D0BAF1010F04D1286A4268464803219047464938
:203C1000086820F003000860584600F0E1FD2B683868986B8047019801280CD0BAF1010FE7
:203C300004D1286A42683B48314690473A49086840F0030008603148066028684169204685
:203C500088470B200CF0A6FB20B128682D4BC16A188888470A200CF09DFB20B128682A4BB6
:203C7000C16A18888847294806600322C9F8DC20274BC3F800B02868416B2046884701286A
:203C9000F9D13868042009F0ADFF0446194806603868144800688009FBD30098012802D181
:203CB000304608F093FA0CF05DFB082009F09AFF07460298C9F8DC600CF034FF17480088F1
:203CD00007F0BCFF0BF068FD57EA040018BF4FF0FF3804E06FF0040801E06FF00108404612
:203CF000BDE8FE8F14100940940E0020FFFFFCFC150009400C400940B8010010000222433A
:203D10002C2009403A1A0100361A0100282008608001044300400340242208400C1E0100A4
:203D3000AC0D002010B50B7884074CBF43F0020303F0FD0304064CBF43F0800303F07F0351
:203D500004074CBF43F0080303F0F70384064CBF43F0200303F0DF0310F0AA0F0B7004D04A
:203D7000107840F00C00107010BD18B9117801F0F301117010BD2DE9F8430D4616462878F5
:203D900002281F464FF0000862D1686801784078089C01EB002189B220001CBFB1F5285FF5
:203DB0000B205AD14FF42850091A08D0491E1ED0491E2CD0491E22D0491E2ED048E0DDF874
:203DD0002490E8680CF0EAFB214680B2421A4A45ACBF4C46041BA4B26018162804DA3C80A8
:203DF0002246E86801440EE04FF00D0834E0E8680088022139803070000A70702CE00620F0
:203E100038800622E96830460CF00EF824E001203880E868017831701EE0E868B0B10821CA
:203E30003980018831700188090A71704188B1704188090AF170818831718188090A717142
:203E5000C188B171C088000AF07105E0398003E0A7F800804FF001084046BDE8F2832DE996
:203E7000F0470F4682B039780024022970D1804678680A9E0178DFF8E0A09146427801EB98
:203E9000022189B24FF42850091A1D4606D0491E29D0491E4ED0491E39D059E0F8680CF0B3
:203EB0007DFB80B2B04204D3A819162803DB0D244FE007244DE0FB682A46494698190BF0DC
:203ED000B3FFAD19F868ADB2C5F11602002140190CF062FBDAF8000000281CBF0268002A91
:203EF00037D0002123E08EBB022DE0D199F8000099F80110FA6800EB01201080DAF800005B
:203F100000281CBF0268002A23D001210FE0EEB9062DCCD1F868062249460BF085FFDAF817
:203F3000000000281CBF0268002A12D00321404690470EE056B9012DB9D199F80000002809
:203F500013BF0128F9680870802402E00B2400E001242046BDE8F687541E00207CB5894DA2
:203F7000144602460026A2F58062182A1AD8DFE812F0FE00F800F100E900E200DC00D50090
:203F9000D0001900C500BE00B700AE00A3001900190080006F00680054004C0042003900F9
:203FB0002C002400282880F28580022940F0828021880CF0B3FD0646E1E0012940F0DE8063
:203FD000002C00F0DB801135A6E0102940F0D680002C00F0D38028463C30102221460BF0F2
:203FF00023FFCCE0012940F0C980002C00F0C68029468D1D90E0262940F0C080002C00F07A
:20401000BD8005F16C002622E8E7012940F0B680002C00F0B3806D1D7EE0602900D13CB9C4
:20403000012940F0AB80002C00F0A8800D3573E005F19200214660220BF0F6FE01206873B6
:204050009DE0012940F09A8020780CF063FD96E0012940F093802078022800F38F800C3583
:2040700028702078022814BF301C01200CF04EFD85E0072940F08280611C684606220BF03A
:20409000B3FD20786946324606F0DAF80446102C10DA0CF037FD38B9204604F03FFC0BF0B8
:2040B0008BF908F091FF6AE02A46012002F14C05285564E0022662E001295FD1A87B217884
:2040D0000028A9735BD12078012858D1E9E7012954D12478072C51DB102C4FDC0B3537E09E
:2040F00001294BD124780A2C48DA093530E0012944D12478022C41DA083529E000293DD187
:204110000CF000FD10B90BF053FFC8E701240F351EE0012932D10A35247819E001292DD141
:204130002478022C2ADAED1D12E0102926D12B4603F12C0051E7012920D12478022C1DDAD0
:204150002D1D05E0012919D12478042C16DCED1C2C7014E0012911D12478022C0EDAAD1C2E
:20417000F6E702290AD120881435288007E0012904D12478022CD8BF6D1CE9DD1826304669
:204190007CBDC046C40A0020F0B57348734A0078734C744B74490D2883B03CD8DFE800F0DF
:2041B000DB07070707D3D358D39292B0B0B7146041F204456D494C88AC421FBF4E8BAE42DD
:2041D0004E8EAE4203D11D806948106072E0022C684D1C804FF4A05635D94FF48067E41B30
:2041F0001AD0241F012C1DD94FF47F77E41B1BD04FF44067E41B0FD0A41E012C0CD9241F5D
:204210000AD0641E012C0DD940F2F937E41B012C19D9241F08D096E0022814BF1E80564DD0
:20423000156047E0554DFBE7554803681C7A012C05D141F20240488048834886F0E74E8032
:204250004E834E86ECE700200BF0A4FC83207EE04C488178FF2952D0182041434A48146081
:2042700040F204450068841C645A1C80641B012C464B70D94FF47F75641B0FD04FF440654E
:20429000641B032C84BF641F012C0BD9A41E012C61D940F2FD35641B06D103E0801C41F2F4
:2042B00001444452136005E000200BF073FC85200CF024FC03B0BDE8F040354800780121D1
:2042D00005F034BA40F204424888188090421CBF41F2084290423ED041F60402904211D110
:2042F0002C4C2D4A25682D4800680023CDE9002355F8086F2A4B0222B0472A490880F7BD56
:204310004888188000200BF045FC85201FE04888188002280DD940F20442801A1BD040F67A
:20433000FC72801A05D0083815D04FF47F72801AE8D1887B801CC0B2B528A8BF662088730E
:2043500000204880F7BD00200BF024FC8420BDE8FE400CF0D3BBF7BD6F4F0020204F002044
:2043700013050100504F0020CC4C0020204A002059550110615A0110B1540110755B011011
:20439000104F0020684E0020804E0020313901106E4F0020F04E002002000080EC4E002038
:2043B00079E80000424F00202DE9F04F054675488C4601689846BCF1000FADF1440D44D0A6
:2043D000002A42D09CF800300120984001423CD01088B0F5C15F2CD1506997696A4CD6697D
:2043F000DFF8A8A10E904FF0030E0DF134090F9720681096C0F3036B59F8047FB7B1002013
:204410003C1F0521034654F8046FB24506D0491E00F1040003F10103F5D107E0052B05DA26
:20443000395821F4702141EA0B413950BEF1010EE2D1C5F804C0AA600CF084F8544C81465A
:20445000207820B148460CF0ADFB002097E003F04DF95049086840F0020008600AA80BF091
:20447000B1FE002604F1BC000AAA4B490C9609F075FE0AA80BF07DFE4FF0FF0A04F160008B
:2044900019210AAB8DF83060444ACDF82CA009F091FD0AA80BF096FE04F1F0000AAA4049FF
:2044B0000C9609F05BFE0AA80BF063FE0127CDF82CA004F17C001A210AAB3A4A8DF8307027
:2044D00009F078FD3849324604F19800134609F03BF936480BF02EFF354A3346042104F19A
:2044F0004C000AF0DDFE4FF6FF70A4F86001A67026716671A671E6712672667226610523C9
:2045100067702278E361501C207048460CF04AFBB8F1000F04D10DF10C0840460BF07EFD70
:20453000D8F800002860D8F80400E86098F810006F742874B8F8120068821E4CAC616C61E8
:20455000D8F80C0000B1A861D8F8080000B168613146782205F1200007F0D8F905F1380046
:2045700031460AF09BFD68460BF0B0FF1249029505F1700032466B4609F0E6F8284611B043
:20459000BDE8F08FD4210840541300500200F844C01600200020094099FE000061F5000069
:2045B000199F00009DB3000025020100E18D000045D500001FCE0000190501002DE9FE4FC4
:2045D000DFF8FC8198F8011011B900200BF0E2FA0CF0E0FA0546002405F6C4150027794E0E
:2045F000DFF8E4910EE038460BF02CFD417939B1316882790A552946641C0CF07BFAE4B242
:204610007F1CFFB299F800008742ECDB98F80100844205D000200BF0BDFA82200CF06EFA19
:2046300098F80100012840F0A980002701E07F1CFFB299F80000874280F29A8038460BF0A4
:2046500001FD054668790028F1D03068A979027891421CBF00200BF09DFAA87986E0306884
:2046700010F809000BF0EEFC00684268DAF808109068814204BF3D4609F1010900F08D8036
:204690008FE03068047801210FE0D8F80420435C02F5AD7209FB03F509FB04FE555B32F8F1
:2046B0000E20954238BF1C46491CFFB2B942ECDB4FF6FF700CF01AFA834620460BF0C2FC08
:2046D00040F6C41500684168CDF800A000204FEA5B076F4382460291CDF804B016E02046A8
:2046F0000BF0B0FC01680A78802A04BFDBF810305F610978402907D1344A8079136803EB36
:20471000401107F5A062CA610AF1010A0098824554DA306810F80A008442F5D0D8F8043043
:2047300009FB00F2991803F5AD73C9899A5A4B08934203D2009B891A8B42E5DA0BF082FC24
:204750000068D0F804B0029A0198DBF80810936800EBD0704010A1F6C41105FB00300CF037
:2047700015FA0028BBD0306810F80A00BDE8FE8F00200BF00FFA82200CF0C0F998F801106F
:2047900030680CF0AFF9306800780BF05BFC00250168D1F804A04FF001096F1CA145FFF6C1
:2047B0005EAFEDB2002D1CBFF8B20028A2464FF4C0797FF466AF3068047879E72046D5E7E1
:2047D000684E0020004F00207B4F0020844E00202DE9F84FDFF8F4B10746ABF13500DFF8DA
:2047F000E0910068800880F0D98071480068006880477A490831D1F8008000254FEA2872F2
:204810005FEA985102F101020AD2C0F13E0110F10A0F4FEAE101D8BF08218A42B8BF0A1C36
:20483000644BD3F87C11C1F304611629A8BF20391B68C3F30443162BA8BF203B9A46891845
:20485000162905DA11F10A0FB8BF6FF0090100E01521594B594E01F01F0242F4F8521A80A2
:20487000326812F0030F18BF0125D20828BF45F002050FB145F004054A4692F90730C31A53
:20489000052B04DA9379AB4208BF918866D0DFF834E10F28A0F10F0C25DB0CEB0013A3F17E
:2048B000F00C4FEA2C26072E88BF07263446062C88BF06245EF82470042303EB840374465B
:2048D000E358DB1B03F0FF04EF0824BFC3F307273C44AF0824BFC3F307473C446F0828BFE7
:2048F00004EB136401E0002426465EF826E0EF080EF0FF0324BFCEF307273B44AF0824BF93
:20491000CEF307473B446F0828BF03EB1E63A4B2ACEB0626AAEB01017443002904F1800423
:2049300003EB1423D8BF0121342408F0FF074C43A1B27943B1FBF3F14FF6FF738B4238BF8A
:20495000191C802889B2918005DA10F1800FB8BF6FF07F0000E07F20D07195711A480068CA
:204970001F2910604FF0000008D340F2FF128A4206D24908401C8A42FBD301E01F219180F5
:20499000134F0F39090940EAC10047EA0001CBF8FB1F0026CBF8FF6FBDE8F88F0D490E4F1B
:2049B0004A4608200F60921D1070BDE8F88FC046EC0100103C1100506E620840242208401F
:2049D0004C1E00209C130050082009403500094000E7A48030100940FDFDA400AC3F0050E2
:2049F0002DE9F04F7E4C38200021243CADF1140D661C04F12003324607F050FF4FF0010850
:204A100006F1230504F14C0B1B36DFF8C09102966F4E206A6F4A00214FF0FF33FCF7ACF8E1
:204A30000746B80923D394F803A00CF057F80CF051F80CF04BF885F804A00BF019F982466E
:204A500070692968401C016029790171052389F80080F068F380401CF06009F007FB306AD6
:204A7000317F002209F0C4FC50460BF045FB002FCFD00BF0FDF80BF03FFB78091BD30BF06D
:204A9000F7F88246307E0BF0B5FA38B199F8003073B15149F0680968884209D108F0B4FF77
:204AB0004E48317F80F80080306A002209F0A0FC50460BF021FB380905D30298006808F097
:204AD0005FFF0020E061B80819D30AF0E5FFB0B960690CF06BF828B994F90030002B03D44C
:204AF00060690AE094F9003007F00400034306D1E0680CF05BF810B9E06804F0EFFC01A8EE
:204B10000DF106016A4609F031FF98B9BDF80400DDF800C0ABF10801042211F8083F834228
:204B300005D0521EF9D160460BF0D9FC02E0496860468847F80823D394F9000000281BDC36
:204B50000BF096F80390A0690BF09FF8824603980BF0D2FABAF1000F0AD094F90000401CE7
:204B7000207050460AF088FB10B150460BF0FAFCA0690CF01BF818B9206A04210BF0A2FF06
:204B90007808FFF446AF94F9000000287FF441AF0BF06EF8824620690BF077F80746504686
:204BB0000BF0AAFA37B138460AF066FB10B138460BF0D8FC20690BF0F9FF00287FF429AF88
:204BD000206A41460BF07EFF23E7C04629160020701300203F0000802C1600202A160020A9
:204BF000381100202DE9FE4F0E468246307AC10693461C464FF000090CD558460BF05EFFF2
:204C1000030000F0EA800A223146504698475FEA00094DD13078DDF838800D9D0C9F0228EB
:204C30001AD170680178407801EB002189B24FF42052891A012910D9891E3AD0491E14D0C1
:204C5000FD397BD0491E00F08280491E6ED0491E74D0491E00F09780ADE0002D2AD1F0689F
:204C7000017839800278416889E0002D22D101203880F0680178217000217089401C80B263
:204C90000BF018FF398860B10278921C51183980418961704189090AA17002784168E01C2E
:204CB0006EE0091D398004220021601C0BF074FC95E0002D68D1F068058804213980257056
:204CD000290A617028460DF102010BF0F3FE5FEA000821D0D8F80C50BDF802204FF6FF7666
:204CF0006B4631460BF0E2FE50B998F80030D8F804203C4802210BF0D5FE08B9ADF80060A9
:204D1000287802280AD169680222201D0BF08CF83888801C388001E0ADF80050BDF800008E
:204D3000A070BDF80000000AE07058E0002D2BD1F068016850460BF014FA02E025BBF06869
:204D50000088022139802070000A607047E0F0680BF024FC80B229468842B8BF4FF00709AA
:204D70003DDB814208BF002206D008EB01028242B2BF4246451BAAB23A80F068014420465D
:204D90000BF052F82BE015B14FF00B0927E0F0680721398001782170417861704188A170EC
:204DB0004188090AE17001792171C1886171C088000AA07113E058460BF070FE5FEA0009E0
:204DD0000BD00F980290CDF8048000953B46224631465046C847814601E04FF00E09484640
:204DF000BDE8FE8FE21B0100F8B57E4F04463868C16E0025002940F0F18010200BF01AFAB2
:204E100039680028C86600F0E7808E6E102221460BF00AF839680878002840F08E80CA6EE3
:204E3000D6F8980012F80CCF00F001030CF0010C634518BF0023400843EA4000C6F898006D
:204E5000C0F34003D2F800C0CCF3400C634506BF430803F00103002320F0020040EA430066
:204E7000C6F89800C0F38003D2F800C0CCF3800C634506BF830803F00103002320F004009B
:204E900040EA8300C6F89800C0F3C003D2F800C0CCF3C00C634506BFC30803F00103002322
:204EB00020F0080040EAC300C6F89800C0F30023D2F800C0CCF3002C634506BF030A03F0CF
:204ED0000103002320F4807040EA0320C6F89800C0F34023D2F800C0CCF3402C634506BFBC
:204EF000430A03F00103002320F4007040EA4320C6F89800C0F38023D2F800C0CCF3802C89
:204F1000634506BF830A03F00103002320F4806040EA8320C6F89800C0F3C0231268C2F391
:204F3000C022934206BFC20A02F00102002220F4006040EAC220C6F898008A6E92F8950015
:204F5000030718D5C86E4368C3F3C00098B1C87840F00800C870D6F8981023480140C6F81A
:204F700098103868C06EC16821F48071C16049084900C16003E092F8330001282AD0607805
:204F900000281CBF7178002908D13968CA78130708D5002804BF7078002803D03A680521A3
:204FB00011711CE06068C0F3800040B996F8950010F0040002D10120087110E00AD0087891
:204FD000002819BF30782178317820780BF062FD054604E0182502E0132500E011252846DB
:204FF000F2BD00BF304F0020FEFEFFFF2DE9F0411C4615468C4208BF854282BF00230022B4
:20501000E5E0002C08BF002D0AD100290EBF00286FF000006FF0000100F0E1F8BDE8F08104
:205030005FF000085FF0000E002C08BF8D429CBF2C1C0025070C47EA01470E0CB44208BFBF
:20505000BD429EBF5FEA044444EA15445FEA0545070A47EA01670E0AB44208BFBD429EBF5E
:205070005FEA042444EA15645FEA0525470847EAC1774E08B44208BFBD4200F29380870837
:2050900047EA81778E08B44208BFBD427CD8C70847EA4177CE08B44208BFBD4266D8070999
:2050B00047EA01770E09B44208BFBD4250D8470947EAC1674E09B44208BFBD423AD88709DE
:2050D00047EA81678E09B44208BFBD4224D8C70947EA4167CE09B44208BFBD420DD8E60150
:2050F00046EA5566EF01B14208BFB84201D3C01BB14158EB08085EEB0E0EA60146EA9566E6
:205110004FEA8517B14208BFB84201D3C01BB14158EB08084EEB0E0E660146EAD5666F016B
:20513000B14208BFB84201D3C01BB14158EB08084EEB0E0E260146EA15762F01B14208BF96
:20515000B84201D3C01BB14158EB08085EEB0E0EE60046EA5576EF00B14208BFB84201D394
:20517000C01BB14158EB08084EEB0E0EA60046EA9576AF00B14208BFB84201D3C01BB141C5
:2051900058EB08084EEB0E0E660046EAD5766F00B14208BFB84201D3C01BB14158EB08085F
:2051B0005EEB0E0EA14208BFA84201D3401BA14158EB08085EEB0E0EA34208BFAA423EBF88
:2051D0002D0A45EA0465240A89D3734642461E4617460B46024631463846BDE8F081704709
:2051F0002DE9F04F44680088ADF11C0D801F00B20690607910F0030F00F0C18000F0030059
:20521000032800F0BC80694E30690BF03FFC42F6021B0025ABF1FF0A80465FE0D8F80800A5
:20523000B4F802908189494554DCC189494551DB0679D0F800C0002E4CD000200CEB0012DA
:20525000518989453DD152F80C1C4B78097801EB03218A453CD152F8041C94F805E009788A
:205270001EEA211F32D0411CC9B28E4229DD0CEB01135A6857785A68127802EB0722934550
:2052900009D0924505D0E5B9491CC9B28E42EEDC17E0912074E046490F784FB1D968228864
:2052B0000968091F31F8043F9A4203D07F1EF9D125B106E089781EEA010F01D18F205FE02E
:2052D0000125401CC0B28642B8DC03E0902057E0832055E040460BF0D5FB804633480069D1
:2052F00040459BD1002D48D020881B214FF6FF7205AB0BF0C3FB002803903CD06188BDF800
:205310001420069FADF808109742D4BF391CBDF81410BDF81420ADF80A1039469142D4BFC0
:205330003A1CBDF81420A11D05F006FA6079410811D2800823D31F48007809F02BFE21794D
:20535000009101901C49228802AB102001F02CFCC5B255B90DE0207900901849228802ABC3
:20537000102001F021FCC5B21DB102A81B210BF021FC284604E0872002E0882000E0842095
:205390008DF8100010B9607940080BD320880DF11107ADF81100892104AA022355200097A3
:2053B00008F014F907B0BDE8F08FC04640120020694F002008020020CDFF00104500011051
:2053D0002DE9F047694DA878ADF1780D002840F0CA8001204FF00008A8704146C5F81C8075
:2053F00008460BF047FBE860414608460BF042FB2861414608460BF03DFBA861414608464E
:205410000BF038FB644E6861776B0197B46B029496F83C308DF80C3096F83D208DF80D204C
:20543000708EADF8000006F140071CCF04A91CC11CCF1CC197E80D0081E80D004C480D900B
:205450004C4C0E940AF014FC4B4C0DA906C9814604F1240080E80600BDF8000020810BF03D
:205470007BF8206122892069414606F04FFABDF800000BF071F8606122896069414606F063
:2054900045FA3E4F3E489DF80DA0F86008F0F2FC3C483D4B079004A90893504608F00AFDAA
:2054B00020214246B8600AF0E5FF0198029A04F12C0100F0FF000B68276BA06102F0FF02DE
:2054D000E261184308603A43226304F1380005F081F92E4920620AF051FFA1692C4A206ACB
:2054F0000A434FF4E02109F03DF9A269206A4FF0C05142F0805209F035F9207E0AF07AFDBD
:20551000C0B2207050B90AF027F9606A30B108F07BFA206A217F424608F06AFF48460AF0A3
:20553000EBFD05F12C004146202206F0EFF905F14C004146202206F0E9F90FA841463C222B
:2055500008230BF093FA308E0BF006F8A86050B11690308E02270FA9424617900D48159753
:205570000BF080FA68601EB0BDE8F0871411002031FD0000B998000070130020980F0020C6
:2055900065EB0000FD970000C5DD000031B5000000000780F1490000080200202DE9F04F4F
:2055B0006C4CE2680746880FADF1140DC0F0CF805068406808B18047E2685168664E8868B0
:2055D00008B9CD6875B13568002DFCD00022326010B18047E0684168C86800B180475F488D
:2055F00009F022FE4FF00008C6F800805C4846F81C0C5C480AF09EFE40F60A09A4F8249020
:20561000A378A4F82680BD6894F83000C34604F1240A00F0F00084F83000012BC4F828B0C4
:2056300094F83100A5F8028000F0F00040F0010084F8310001D17B7CABB1B8680088A9F159
:205650000801814208D0B0F5C15F05D0298B4FF60F400840288304E0298A4FF60F4008404E
:20567000288287F811804048016883680193C368406B00911022694620F0784040F08050E0
:2056900003903A48029305F057F8494600E01D466B6813B118888142F9D1C5F804A0687B32
:2056B00000F0F000687304F138000AF05FFF80680088A9F10701814220D0491C81421DD0C0
:2056D0003B8CEBB197F82C0097F82D30C7F824B000F0F00087F82C0003F0F00040F001007E
:2056F00087F82D0007F12002A2629AF80D00A7F8228000F0F0008AF80D0001E0C4F8108054
:2057100030680028FCD0C6F80080B968237A0A8A4FF6FF301040088283B9154800680168A5
:205730000120884701280FD0687B00F0F00040F0010068730F480AF0FDFD05E008F07AFBF5
:205750000028FBD00AF010FFB86846F81C0C05B0BDE8F08FC01600201C100440010007066A
:2057700001010E04DD2000004C13005018000021E00100106DC90000F0B507460E4640F281
:205790000E30ADF1340D04A902F06EF9684C94F83800002800F0CA800025387884F8385023
:2057B000932800F0C080002840F0AB80608FB042C0F29C8094F8390008386ED0801E36D0D5
:2057D000801E40F08880A08F32460D212B460BF055F9039008B3D7F80710ADF8086032469B
:2057F00004F0AAFF5349A28F102002AB01F0DCF9C0B2002800F09A808DF8240087218DF812
:2058100022108DF8235003220DF122034FF40040294605F043FE0D2131E08DF81F50872004
:205830008DF81E000DF11E038DF820004CE0A08F32460B212B460BF021F9039018B3D7F83F
:205850000710ADF80860324604F076FF3A49A28F102002AB01F0A8F9002867D087208DF885
:205870001A0001278DF81B50294603220DF11A038DF81C704FF4004005F010FE0B2102A8CA
:205890000BF098F952E08DF8175087208DF816000DF116038DF8180016E00096206C408977
:2058B00026490190A28FD7F80730102001F07CF9C0B200283AD08DF8275087218DF8280016
:2058D0000DF126038DF826104FF400402946032205F0E4FD2AE087208DF82B5084278DF808
:2058F0002A000DF12A038DF82C70EDE787208DF8135084278DF812000DF112038DF8147061
:20591000E2E794F83910276C8DF80810A28F798902ABADF80A100A498DF80C00102001F005
:2059300043F9A56402E0A56409F0CAFD0DB0F0BD40120020518F01102D8F011041930000F9
:20595000398E011066480178002900D170472DE9F043491E032985B004D9891F012940F295
:20597000BC80B4E05F4CDFF880912168DFF87C8108685F4E00F10805062205F1080102A86B
:205990000AF052FA0622A91C68460AF04DFA2878C1091D2700F00F02032AC0F3801537D1A9
:2059B0006079C0F3800081421ED12169062202A809F062FF00280AD0694628460BF0DAF877
:2059D000002804D0314668460BF0D0F8FF2879D04743D8F80000807AF519002818BF0228D8
:2059F0000AD0012818BF03286CD1F25D691C48460BF034F8102865D06B46EA1D29464846AA
:205A10000BF028F806226946E81D0AF00DFA59E000F00F00052860D16079C0F38000814219
:205A300050D12169062202A809F026FF002849D0694628460BF09EF8002843D0314668466C
:205A50000BF094F8FF283DD04743D8F80000807AF519002818BF01280AD0022818BF0328EB
:205A700030D1F25D691C48460AF0F8FF102829D040F202400AF0EAFF6B46EA1D2946484685
:205A90000AF0E8FF06226946E81D0AF0CDF9D8F80010F05D88760622D8F80000691C14308D
:205AB0000AF0C2F91348144A41F20441418041834186124801801249124808600121107802
:205AD00003F034FE21680A680020107105E000200AF060F886200BF011F805B0BDE8F08327
:205AF0006F4F0020F44B0020CC470020104F0020AC450020204A00206E4F0020504F002070
:205B1000204F002059550110F0B541680026ADF1140D8DF810600878694D8DF802008A7840
:205B3000487800EB0220ADF80300C8780A7900EB0220ADF8050028788DF80700487B8DF8F2
:205B50000F0007F0FBFE9DF80200012800F0AA8040F21A300DF1110101F086FF9DF81100B4
:205B7000022800F09D809DF81100032800F098809DF81100072800F09380BDF8030000284D
:205B900008BF341C14D0BDF803004FF47A716A46B0FBF1F0ADF8000002210120FDF7CCF837
:205BB000044602210DF103023046FDF7C5F80443BDF8050018B3434F0346062210203946C0
:205BD00000F0F2FFBDF80530044307223946102000F0EAFFBDF80530E4B208220443394682
:205BF000102000F0E1FFBDF80530E4B2092204433946102000F0D8FFE4B20443E4B22A464A
:205C100040F20D300121FDF797F840EA040701210DF1020240F20930FDF78EF838433BD19B
:205C30009DF802709DF80F00032FAF7000F00300687013D0012440F21A300DF111018DF874
:205C5000134001F011FF9DF8110006281CBF40F205300DF113021BD186201EE0012440F2D0
:205C70001A300DF111018DF8124001F0FDFE9DF81100062808D13835287A28B129786A68EF
:205C900040F20730FDF758F840F21B300DF112022146FDF751F806E087208DF8100007E00B
:205CB0008A2000E084208DF810009DF8100028B13246082004A9134605F0F0FB05B0F0BDAB
:205CD000DC120020BD8401102DE9FE4F674D664C674F2868626A066904F120033946012052
:205CF000B04710B1286880688047DFF89881DFF8849109F04DFB5FEA000B03D004F0E2FE85
:205D10004FF0FF3B002637E00098216910F8062CA0F10C07032A02D171B388472CE0A06AB4
:205D30009DF805C00A213246401E10F8013F9C4506D0491E02F10102F7D14FF0FF0A01E0AB
:205D50005FFA82FA2868BAF1FF0F00F1080011D0387908F02DFCB979012904D0022904BF4B
:205D70000099887001E0009908700099504609F0A3FD01E0006880472868C3690DF10501F8
:205D90006A4601A898470028BED0D9F8000030F8167027B9761CF6B20A2EF8DB23E00A2E26
:205DB00021DAD8F814008047D9F800107700002231F807A0CA53D8F8181088472E4850F841
:205DD000262026705146304690470646FF202070D8F814008047D9F800107A5A16437E526F
:205DF000D8F81810884709F0D3FA0746BB451AD007B9224FE069B84238BF071CD8F814005D
:205E1000804782462868016A206A8847626A286817491B4B521C6262C6683846B047D8F8C8
:205E3000181050468847A7682968606914318FB9D9F800000A270026835B33B109696069AA
:205E500088472968D9F8000014317F1E06F10206F2D103E0096988472968143109684FF0B3
:205E7000FF30884745E7C046DC140020A0160020F9E500005C1E0020601C01008EC2F5289A
:205E9000FC140020C00E00202DE9F04FADF1240D079001F02BFC6148007809F0DBFA604D65
:205EB0000024012808D90A380FD0801E04D0401E0ED0401E09D006E009F00EFF022804BFC5
:205ED00001210C1C06D0696805E005211F2401E0032107246960534A1068C0F381500128B8
:205EF00006D152F80C0C0127020E07FA02F004430AF060F9524AFF230818401E471C28606D
:205F10007F1E02F8013BFBD1079A1268002702F0FF03FE2B20D0DDF81CC096463B4601264E
:205F30000EF0FF02FF2A10D0904205D3914203D806FA02F2144201D002206CE017430EF010
:205F5000FF02DFF8FCE00EF802305CF804EF5B1C0EF0FF02FE2AE5D1092003F019FE0798D8
:205F70000121A86005F1280009F098F805F19806A8464FF0010A4FF0040B0025A9460AFA0E
:205F900005F0044216D1074204BF05F0FF0141F4C04104D02A480799405D51F82010224832
:205FB00003F058F9E8B24FF0FF3109F091FDC6F8009001E0C6F800B0D8F800006D1C361DB4
:205FD0008542DCD904A80AF0D4F8184C184A2078102104AB059008F10C0007F0EBFF68465C
:205FF0000AF0F0F8CDF80C906A4660681149029008F1640008F0B2F80F4951F80D0C20F41D
:20601000F85040F4005041F80D0C0C4FC1F8FFAF4846C7F800A009B0BDE8F08F6D1E00201B
:20603000980C0020B43F0050007FC767B01E0100FDFA000005DE00000D300940080009401C
:20605000DC0C00202DE9F84F694CE76B09F050FE6A4D002F4ED081081BD207F110020CCA23
:20607000002102400B4008BF002A43D03A693E6A10403043386207F1180696E80C0027648B
:20609000194307F11806104386E803004FF480412CE039693E6A07F1180341F002010840D1
:2060B0003043386293E800030022002607F1180340EA080046EA090183E803003E69E26324
:2060D0002B46A3F1100000F108031968B14307F11006196096E8000301684B4699430160EB
:2060F000394604F1440007F09BFB022104F1BC000AF048FAAB46002601254FF002094FF075
:20611000110AA846F0B209F09BFE071C30D0B87C01282DD1ABF11400797C0368113105FA63
:2061300001F223EA02010160797C4268113105FA01F111434160787C08FA00F0C0B209F0D3
:2061500061FDF868002109F001F8812808BF87F8129081280CD0787C94F862110AFA00F061
:20617000084384F86201002104F1F0000AF00AFA761C032EC6D320480AF0F8F90746E06B9A
:20619000002832D167B3684606F0F6FF30B1009820B1082005F078FBBDE8F88F082009F0EA
:2061B00031FD14493869A1F10802136807F110061843106096E80C0051F8102C181C10431D
:2061D00041F8100C00250D60B86841F81C0C0F68002FFCD0084809F0BBFDE063BDE8F88F65
:2061F00004F1BC0049460AF0CDF9BDE8F88FC046C01600201C100440F81600201C10044059
:206210002DE9F04104466B4DA178A869ADF1180D891F00F0C880091F5ED0491E48D0C91E9C
:206230003CD0481E40F0C280287A697AB8B96878002831D0A0880AF005FC071C00F0B680FF
:20625000A07A40080FD3787968B1E168890A0AD2B91D01AA03F0F4FF102804D10321A08868
:206270000AF0ECFBA2E0287B022802D1A07A0009F4D3A088797904F1080200F0CDFBA8693F
:20629000002800F093804368002B00F08F8000210A46A088984789E00521E0E7002800F008
:2062B00085804368002B00F0818062780221F0E709F0A8FF002879D0A86950B1076847B1A4
:2062D000206900906189227B637BE01C3C46A0476CE060890121C3E767784FF00008002F75
:2062F00052D1A17949084FD3EF69002F4CD101A841460E220AF050F9A0880AF0A3FB071CB4
:2063100054D0606940B97879B91D06228DF80A0001A809F089FD19E06669307C062206F14E
:2063300011018DF80A0001A809F07EFD07F10C00B91D062209F078FDB81D062206F1110119
:2063500009F072FD307C40F002007871A1799DF81120C1F3800010438DF81100080905D318
:206370009DF8110040F008008DF8110001A8214600F0E2FC28B92878022103F0D7F94046CE
:2063900015E0A8694FF0150880B1436873B1A088627801219847B8F1000F07D0A86943683D
:2063B0000321424675E7A08806F062FF012006B0BDE8F081C40A002060480178042900D845
:2063D00070472DE9F84F891F2FD0491E012900F2AA805B4CA078FF2827D009F033FE824676
:2063F0000AF16C0670680AF025FB0746387903281BD1B868017811F0030904D17068BDE821
:20641000F24F0AF013BB457800F102080AF20F10B9F1030F00900DD045B1307830B9009848
:206430003D21417001210098017084E0454801780129FAD09AF894000AF59A7B58B32D1F23
:206450004346EAB2494650460AF0ECFA50B900993D204870012000990870BDE8F24F3A48B1
:206470000AF0DCBA39480168884700904FF4C0709AF80620616842438818002180F8391137
:20649000DBF800109BF80600490806F043F8304900980A6890470020B9F1030FB8602ED0A2
:2064B0002C4840690078810708D5C0074CBF03200020EDB2401918F8000000E08120307292
:2064D0002549BBF83E000A78904211D3317A802918BF81290FBF7F21204A1078091A49B2C2
:2064F00000914B46A078EAB241460AF093FA11E0A0784B46EAB241460AF088FA0AE00F482E
:206510000178082903D0414650460AF07BFA404607F0CEF870680AF089FA39465046BDE810
:20653000F44F0AF06BBA002009F034FBBDE8F24F86200AF0E3BABDE8F18F00BF6F4F0020BC
:20655000684E0020794F0020AC450020D40E0020D80E0020101F01006B4F0020704F00206B
:206570002DE9F04F8346ADF1140D0393BBF1000F02920E9801910F9C049000F0AC80081C92
:2065900000F0A980101C00F0A680181C00F0A3800498002800F09F80002C00F0A180206AAF
:2065B000002800F09880524D676A281D0068002F00F09180A16A0AF01DFA40B2002808BF51
:2065D0006FF0020700F0838084F82C002078618800EB80000918143188B2216A8847434936
:2065F000086030B9284640680AF000FA4FF0FF376DE08A46628823786088DAF800102678B1
:206610009F1800EB0109781800F1040806EB460002EB430786187F18C01876188018401838
:2066300000F11005204607F0B3F82078C01C8010C9F800002078C01C8010C8F8000020781B
:206650000837C01C8010386020780C36C01C801030602078C01C801028602278594609F152
:20667000040004F069F82278019908F1040004F063F822780299381D04F05EF8009548463A
:2066900041463A4633460AF0ADF947B222780398331D194604F050F822780498291D04F041
:2066B0004BF821786288DAF8000001EB81015218002105F02BF9616ADAF8000088470C4860
:2066D00040680AF093F9F8B2992808BF002784F82C70384606E01CB16FF0010084F82C00D2
:2066F0006FF0010005B0BDE8F08FC046884F0020181600202DE9F04F044661680878ADF180
:20671000240D8DF808008A78487800EB0220ADF80900C8788DF80B004A79087900EB02200D
:20673000891D2288ADF80C00921F0DF10E0004F003F84FF087098DF81F9020888DF80490D8
:20675000801F00245FFA80FBADF805400DF11F0008F08EFC00287CD09DF809008DF8200052
:20677000182009F0F9FE071C70D02146182205F0CDF802203870424E7E604FF0010887F824
:2067900008807C814046A7F8108009F0E5FE3D4D0646E8687E61002E55D0FE6008AA796989
